:020000040800F2
:10000000F84C0020DD0100089B1B00081F190008A8
:10001000991B00085503000809280008000000008B
:100020000000000000000000000000004501000882
:10003000570300080000000089010008C1240008DF
:10004000F7010008F7010008F7010008F7010008B0
:10005000F7010008F7010008F7010008F7010008A0
:10006000F7010008F7010008F7010008F701000890
:10007000F7010008F7010008F7010008F701000880
:10008000F7010008F7010008F7010008F701000870
:10009000F7010008F7010008F7010008F701000860
:1000A000F7010008F7010008F7010008F701000850
:1000B000F7010008F7010008F7010008F701000840
:1000C000F7010008F7010008F7010008F701000830
:1000D000F7010008F7010008FD270008F7010008F4
:1000E000F7010008F7010008F7010008F701000810
:1000F000F7010008F7010008F7010008F701000800
:10010000F7010008F7010008F7010008F7010008EF
:10011000F7010008F701000885250008F70100082D
:10012000F7010008F7010008F7010008F7010008CF
:10013000DFF80CD000F09EF800480047D9290008ED
:10014000F84C0020224B19680868B0E8F00F80F3E3
:100150000988BFF36F8F4FF0000080F311884EF0D5
:100160000D0E70470000000006480068006880F32C
:10017000088862B661B6BFF34F8FBFF36F8F00DFA1
:1001800000BF00BF08ED00E0EFF30980BFF36F8F01
:100190000F4B1A6820E9F00F106008B54FF05000BF
:1001A00080F31188BFF34F8FBFF36F8F03F002F915
:1001B0004FF0000080F31188BDE808401968086816
:1001C000B0E8F00F80F30988BFF36F8F704700BF6E
:1001D00060000020EFF3058070470000064880476C
:1001E00006480047FEE7FEE7FEE7FEE7FEE7FEE71C
:1001F000FEE7FEE7FEE7FEE73D25000831010008C7
:1002000040EA01039B0703D009E008C9121F08C098
:10021000042AFAD203E011F8013B00F8013B521E18
:10022000F9D27047D2B201E000F8012B491EFBD28F
:1002300070470022F6E710B513460A4604461946F1
:10024000FFF7F0FF204610BD30B50B4601460020F9
:100250002022012409E021FA02F59D4205D303FA88
:1002600002F5491B04FA02F52844151EA2F1010209
:10027000F1DC30BD064C074D06E0E06840F00103BC
:1002800094E8070098471034AC42F6D3FFF754FFC8
:10029000D43D0008F43D000870B50446006881684C
:1002A000C943C9071CD1816821F00101816000F0B8
:1002B0002BFC05460FE000BF00F026FC401B022887
:1002C00009D9A06A40F01000A062E06A40F0010085
:1002D000E062012070BD20688068C043C007EBD099
:1002E000002070BDF8B500260446009600688168BD
:1002F000C943C90728D0816841F0010181601348D2
:1003000013490068B0FBF1F000E0401E00900028A7
:10031000FBD100F0F9FB054611E000BF00F0F4FB53
:10032000401B02280BD9A06A40F01000A062E06ACE
:1003300040F00100E06284F824600120F8BD2068EC
:100340008068C043C007E9D10020F8BD50000020FC
:1003500040420F00FEE7704770470000F8B50024E8
:10036000009490F824202546012A12D0012280F81A
:1003700024204A681F23072A0DD20668776B521E75
:1003800002EB820293409F430B6893401F437763C5
:1003900019E00220F8BD06680D2A0AD2376BD21F79
:1003A00002EB820293409F430B6893401F433763E5
:1003B00009E0F76A0D3A02EB820293409F430B6813
:1003C00093401F43F7620A68072306680A2A0AD384
:1003D000F7680A3A02EB420293409F438B689340CE
:1003E0001F43F76008E0376902EB420293409F43E6
:1003F0008B6893401F4337610A68102A01D0112A85
:1004000020D1124B02689A4217D193681B0219D46B
:10041000936843F4000393600968102912D10C49D2
:100420000C4A0968B1FBF2F101EB8101490000E0DF
:10043000491E00910029FBD104E0816A41F02001AE
:100440008162012480F824502046F8BD0024014038
:100450005000002040420F000068C06C7047000050
:100460002DE9F04104004FF0000514D0A06A0026E9
:1004700028B9E66284F82460204600F083F820461C
:10048000FFF70AFFA16A01F01001014304D0A06A3E
:1004900040F01000A0626BE0A16A21F4885141F0A5
:1004A0000201A162334923688B42E16904D1B1F5AD
:1004B000402F01D14FF40021277B4FF4807C41EA8B
:1004C000470261680A43A168614509D0012907D044
:1004D0005FF0000194F814E0BEF1010F02D00AE0D1
:1004E0006146F7E7C7B1A76A47F02007A762E76A46
:1004F00047F00107E7625F6827F469470F435F60D1
:10050000236899681C4F394011439960A16861457F
:100510000BD0012909D00CE0DFF860E0A7690EEBF1
:1005200047370F4347F40061E5E7218A0D05A5F53C
:1005300080152168CB6A23F470032B43CB622168BA
:1005400089680F4B1940914208D1E662A16A21F0F7
:10055000020141F00101A162BDE8F081A06A20F032
:10056000020040F01000A062E06A40F00100E0628A
:100570000120F1E7003C0140FDF7E1FF00E0FFFF53
:10058000FE0E1FFF00B585B0002100910191029180
:10059000039100680E49884218D10E48816941F4E0
:1005A00000718161816901F400710491816941F0F8
:1005B000100181618069694600F0100004900220FA
:1005C000009003200190044800F098F905B000BDA8
:1005D0000024014000100240001001402DE9F843C2
:1005E00000260D460446009600F08EFA80462068EC
:1005F0008168C90508D5A06A40F02000A06284F88F
:1006000024600120BDE8F8834168C90503D4C06AAD
:1006100010F4700F26D0022000F01AFB3849096848
:10062000B1FBF0F72068036936490B424FEA6101DC
:100630004FEAA1121BD1C3684FEA611C13EA0C0FE9
:1006400015D103690B4221D1C06810421ED114207C
:100650001FE0681C06D045B300F056FAA0EB080076
:10066000A84222D8206800688007F2D52AE00369F2
:100670000B4202D1C168114206D0026922490A42E6
:1006800006D1C068084203D1542002E0292000E0CE
:10069000FC204743009813E0681C0ED02DB100F0F9
:1006A00033FAA0EB0800A84207D9A06A40F0040082
:1006B000A06284F824600320A4E70098401C009006
:1006C000B842E9D321686FF012000860A06A40F4D4
:1006D0000070A06220688068C0F3424007280CD1F7
:1006E000207B50B9A06A20F48070A062A06AC00488
:1006F00003D4A06A40F00100A062002082E700005D
:1007000050000020244992244992240070B50446E8
:1007100090F8240001280DD0012084F82400204600
:10072000FFF7E0FD02004FF0000005D084F8240040
:10073000104670BD022070BDA16A40F201239943AA
:1007400041F48071A1621F4D23681F49AB4218D14B
:100750000E6816F4702F14D0A66A46F48016A662AE
:100760000E68760505D5A66A26F4005646F480562E
:10077000A662A66AF6040AD5E66A26F00606E662CE
:1007800006E0A66A26F48016A6625E68E9E7E062E3
:1007900084F824006FF00200186020688368C3F3B7
:1007A0004243072B05D1A84208D1096811F4702FE4
:1007B00004D0816841F480118160B9E7816841F417
:1007C000A001F9E700280140042401402DE9F05F71
:1007D00090F821100024022903D004218163012410
:1007E00085E001680A6822F00E020A6001680A6862
:1007F00022F001020A603F4E3E4FB215DFF8F4C00E
:10080000DFF8F090DFF8ECA0DFF8E8B0DFF8E4E024
:100810000168783F13011502ACF1640CA9F150098D
:10082000AAF13C0AABF1280BAEF1140E4FF480187C
:10083000B14227D9B9420ED0614512D049451DD0E9
:10084000514518D0594518D0714501D1424615E09F
:10085000294EB14201D1012210E0274E1436B14297
:1008600001D110220AE0244E2836B14206D0224A95
:100870003C32914201D11A4600E02A461E49091F26
:100880000A602BE0B94213D0614517D0494522D008
:1008900051451DD059451DD0714501D142461AE040
:1008A000B14202D14FF0807215E0134EB14201D136
:1008B000012210E0104E1436B14201D110220AE09C
:1008C0000D4E2836B14206D00B4A3C32914201D13E
:1008D0001A4600E02A46074980394A60012180F81B
:1008E0002110002180F82010416B01B1884720467B
:1008F000BDE8F09F80000240080402402DE9F84F57
:10090000DFF8C891002409F1040A0AF1040B234618
:100910000F270BF1040ED1E00125A54006EA0502E0
:10092000AA4276D1DFF8A8C14E68A6EB0C0866454E
:100930002BD00DDC032E34D005DC36B3012E19D0BC
:10094000022E2FD11BE0112E16D0122E2AD119E023
:10095000B8F5881F19D006DCB8F5803F15D0B8F57A
:10096000801F1FD111E0B8F5001F0ED0B8F5041F8D
:1009700018D10AE0CB6815E0CB681B1D12E0CB68EC
:1009800008330FE0CB680C330CE08B682BB1012BE4
:100990004FF0080303D0456104E0042302E0056141
:1009A00000E00023FF2A01D8064601E000F104061A
:1009B0004FEA840501D9A5F12005D6F8008007FA91
:1009C00005FC28EA0C0803FA05F548EA0508C6F80C
:1009D00000804D68ED0070D53E4DAE6946F00106D1
:1009E000AE61AD6924F0030605F0010500953A4DAE
:1009F00006EB050CDCF80850A607360F07FA06F8D8
:100A000025EA0805DFF8D480404503D14FF00008FF
:100A100025E052E0DFF8C880404502D14FF00108E0
:100A20001DE0DFF8C080404502D14FF0020816E01B
:100A3000DFF8B480404502D14FF003080FE0DFF843
:100A4000AC80404502D14FF0040808E0DFF8A080F8
:100A5000404502D14FF0050801E04FF0060808FAC2
:100A600006F848EA0508CCF808804D68D9F8006017
:100A7000ED034D4601D5164300E096432E604D68C8
:100A8000DAF80060AD03554601D5164300E0964301
:100A90002E604D68DBF80060ED025D4601D516431F
:100AA00000E096432E604D68DEF80060AD027546AA
:100AB00001D5164300E096432E60641C0A68164672
:100AC000E2407FF429AFBDE8F88F00000004014048
:100AD0000000111000100240000001400008014019
:100AE000000C0140001001400014014000180140BA
:100AF000001C01408068084000D0012070470AB106
:100B0000016170470904FBE70148806870470000F5
:100B100054000020024881680278114481607047C7
:100B200054000020074810B5016841F01001016031
:100B3000032000F07BF80F2000F006F800F024F806
:100B4000002010BD0020024070B50D4D04464FF44A
:100B50007A712878B1FBF0F00A490968B1FBF0F02E
:100B600000F0D8FB48B9102C07D200222146501EB5
:100B700000F03CF800206C6070BD012070BD0000EA
:100B800054000020500000200F4808B5816941F052
:100B900001018161816901F001010091C16941F0A8
:100BA0008051C161C069002200F0805000900F2187
:100BB000901E00F01BF80548416821F0E06141F00B
:100BC0000071416008BD00000010024000000140BB
:100BD000002809DB00F01F0201219140400980003C
:100BE00000F1E020C0F8001170470000F0B40E4B97
:100BF0001B680C46C3F30223C3F10705042D00D97B
:100C00000425191D072901D2002300E0DB1E01265F
:100C100006FA05F1491E214099409E40761E164075
:100C20003143F0BC01F002BE0CED00E0064900F0DB
:100C3000070208684FF6FF03184040EA0220034A03
:100C400010430860704700000CED00E00000FA055A
:100C500010B52CA401461DCC86B08DE81D002DA03A
:100C60002D4C00680490002004292FD00BDC0129B2
:100C70002FD0022928D100F073F96168C1F38131C6
:100C8000491C49001EE0082920D010291CD16168A8
:100C90002268D20118D5C1F38342C9031DF80200AE
:100CA00009D5616804AAC1F34041515C1B4AB2FBFB
:100CB000F1F1484301E01A4948436168490203D40D
:100CC00040000321B0FBF1F006B010BD00F058F970
:100CD000FAE7226AC2F30121012903D1920701D563
:100CE000C803F1E7022905D1626A920702D549F6E5
:100CF0004040E9E70329E7D121688903E4D50948A1
:100D0000E2E7000002030405060708090A0B0C0DC0
:100D10000E0F101001020000001002400024F40029
:100D200000093D0048E801002DE9F8430546007838
:100D3000354CC00754D0E0690026C00008D4E069F3
:100D400040F08050E061E069012600F080500090A2
:100D50002E480168C90512D40168804641F48071AB
:100D60000160FFF7D1FE074605E000BFFFF7CCFEAC
:100D7000C01B642823D8D8F80000C005F6D5206A27
:100D800010F4407021D0A98801F4407181421CD038
:100D9000206A1F49012220F440700A6000220A6084
:100DA0002062C00711D0FFF7AFFE074641F2883836
:100DB00008E000BFFFF7A8FEC11B414502D9032090
:100DC000BDE8F883206A8007F4D5206A696820F4BA
:100DD0004070084320621EB1E06920F08050E0615D
:100DE0002878800705D56068A96820F4404008434A
:100DF00060602878C00605D56068696920F48000C5
:100E0000084360600020DBE70010024000700040F3
:100E1000400442422DE9F0470F46050061D0434EA1
:100E2000306800F00700B84209D2306820F00700AF
:100E300038433060306800F00700B84251D128686C
:100E40003B4C810712D5400703D5606840F4E06051
:100E500060602878000703D5606840F460506060E7
:100E60006068A96820F0F000084360602878C00737
:100E700028D06868012810D02168022810D089077E
:100E800000292EDA616821F0030101436160FFF758
:100E90003BFE804641F288390DE021688903EFE787
:100EA0008901EDE7FFF730FEA0EB0801494502D9C3
:100EB0000320BDE8F0876068696800F00C00B0EBC3
:100EC000810FEFD1306800F00700B8420BD93068CD
:100ED00020F0070038433060306800F00700B84267
:100EE00001D00120E5E72878400705D56068E9686A
:100EF00020F4E060084360602878000706D5606849
:100F0000296920F4605040EAC100606000F038F8C0
:100F10006168084AC1F30311515CC8400649086082
:100F200006480068FFF710FE0020C2E700200240DC
:100F3000001002404C3D00085000002058000020E6
:100F40000448054900684968044AC1F30221515C1C
:100F5000C840704750000020001002405C3D00086F
:100F60000448054900684968044AC1F3C221515C3C
:100F7000C840704750000020001002405C3D00084F
:100F800013A185B00FC98DE80F0015A0154A0068A0
:100F90000490516801F00C00042804D0082804D003
:100FA000114805B070471148FBE7C1F38343C903FB
:100FB0001DF8030009D5516804AAC1F34041515CF2
:100FC0000A4A5043B0FBF1F0EBE709494843E8E730
:100FD00002030405060708090A0B0C0D0E0F10107A
:100FE000010200000010024000127A000024F40008
:100FF00000093D002DE9F84F040070D02078C04D65
:10100000C00749D06868C0F38100012807D068682C
:10101000C0F38100022809D16868C00306D528689A
:10102000800339D560680028E7D035E06068B0F506
:10103000803F0BD010B1B0F5A02F11D0286820F45C
:1010400080302860286820F4802002E0286840F47E
:1010500080302860606890B1FFF756FD06460AE0D0
:10106000286840F480202860F0E700BFFFF74CFDBF
:10107000801B642873D828688003F7D50CE0FFF73D
:1010800043FD064605E000BFFFF73EFD801B6428D8
:10109000F0D828688003F7D420789A4E80074FF064
:1010A00001094FF0000839D5686810F00C0F07D01F
:1010B0006868C0F38100022809D16868C00306D4BB
:1010C0002868800714D52069012808D110E020691C
:1010D000B0B1C6F80090FFF717FD074605E00AE13A
:1010E000FFF712FDC01B0228C4D828688007F7D577
:1010F0002868616920F0F80040EAC10028600DE02E
:10110000C6F80080FFF700FD074604E0FFF7FCFC8F
:10111000C01B022823D828688007F7D4207800074E
:101120002CD57948A169D9B1C0F80090FFF7ECFC43
:10113000074604E0FFF7E8FCC01B02280FD8686AE6
:101140008007F7D571484FF4FA510068B0FBF1F011
:10115000009000BF0098411E0091FAD20EE080E09E
:10116000C0F80080FFF7D0FC074604E0FFF7CCFC96
:10117000C01B022875D8686A8007F7D4207840071A
:1011800060D5E8690027C00008D4E86940F08050C5
:10119000E861E869012700F0805000905C48016830
:1011A000C90513D40168834641F480710160FFF7DB
:1011B000ABFC824606E000BFFFF7A6FCA0EB0A00EE
:1011C00064284ED8DBF80000C005F5D5E06801289A
:1011D0000AD008B1052813D0286A20F0010028623F
:1011E000286A20F0040002E0286A40F0010028622A
:1011F000E06841F2883B98B1FFF786FC82460BE03D
:10120000286A40F004002862EEE700BFFFF77CFC8C
:10121000A0EB0A0159455AD8286A8007F6D50CE098
:10122000FFF772FC824605E0FFF76EFCA0EB0A01B7
:1012300059454CD8286A8007F6D41FB1E86920F0D8
:101240008050E861E06988B36968C1F381010229CF
:1012500044D00228C6F8608004D0FFF755FC04464D
:1012600038E034E0FFF750FC074604E0FFF74CFCA1
:10127000C01B02282BD828688001F7D4206AB0F55B
:10128000803F05D16868A16820F400300843686099
:10129000D4E908010843696821F4741108436860BF
:1012A000C6F86090FFF730FC044606E025E000BF7A
:1012B000FFF72AFC001B022809D828688001F7D50F
:1012C0001BE000BFFFF720FC001B022802D903200F
:1012D000BDE8F88F28688001F4D40EE00128F7D02B
:1012E0006868226A00F48031914204D1616A00F496
:1012F0007010884201D00120EAE70020E8E70000F2
:10130000001002400000424280044242500000208F
:101310000070004010B5401EB0F1807F01D3012065
:1013200010BD4FF0E02460610F21601701F07EFADC
:101330000020A06107202061002010BD7047704789
:1013400070B590F83C20012A19D0012400F83C4FD8
:101350000222427050F83C3C5A689D6822F07006A8
:101360000A684968324325F0800529435A6050F8DD
:101370003C2C9160447000210170084670BD022031
:1013800070BD10B5040003D094F83D0010B107E023
:10139000012010BD002084F83C00204600F00CF82D
:1013A000022084F83D00211D206801F0F1F80120A1
:1013B00084F83D00002010BD08B500680B49884244
:1013C00012D10B48C16941F01001C161C06900220E
:1013D00000F01000009006213620FFF707FCBDE862
:1013E00008403620FFF7F4BB08BD000000100040A5
:1013F000001002400168CA6842F00102CA60006839
:10140000816801F00701062903D0016841F001015C
:10141000016000207047704770B50446006801699C
:101420004FF00005C943890715D4C168C94389072E
:1014300011D4E91E016101202077206880698007AE
:10144000204602D0FFF7E7FF04E000F098F82046BE
:1014500000F096F8257720680169C943490717D439
:10146000C168C943490713D46FF004010161022028
:1014700020772068806910F4407F204602D0FFF773
:10148000CAFF04E000F07BF8204600F079F82577E9
:1014900020680169C943090716D4C168C94309070F
:1014A00012D46FF008010161042020772068C06920
:1014B0008007204602D0FFF7AEFF04E000F05FF89F
:1014C000204600F05DF8257720680169C943C90608
:1014D00017D4C168C943C90613D46FF01001016164
:1014E000082020772068C06910F4407F204602D091
:1014F000FFF791FF04E000F042F8204600F040F8CA
:10150000257720680169C943C90708D1C168C94363
:10151000C90704D1891E0161204600F033F8206814
:101520000169C943090609D4C168C943090605D43C
:101530006FF0800101612046FFF700FF206801691C
:10154000C943490609D4C168C943490605D46FF0A7
:1015500040010161204600F07BF820680169C94321
:1015600089060BD4C168C943890607D46FF02001EE
:1015700001612046BDE87040FFF7E1BE70BD7047D5
:101580007047000070B52448244C007801280AD127
:10159000050229462046FFF7ADFA68B10022294628
:1015A0002046FFF7ACFA1E480078012806D01D48F7
:1015B000007801280CD016E00122F0E740212046F7
:1015C000FFF798FA10B10022402109E00122FBE761
:1015D000154C10212046FFF78DFAD0B100221021C2
:1015E0002046FFF78CFA11480078012807D01048F0
:1015F0000078012803D00F48007801280BD10E484D
:101600000178491CC9B20170BDE870400BA001F01F
:10161000FDB80122E3E770BD2F0000200008014063
:101620002D0000202E00002000100140310000207D
:1016300033000020350000203000002054696D5F29
:10164000436F756E74203D2025640D0A0000000074
:101650007047704770B5026804461068D1685369D6
:1016600010F00F0F51D003F0010501F490763543CF
:101670005DD0C20705D0CA0503D5E26B42F0010276
:10168000E263420705D5DA0703D0E26B42F00202BB
:10169000E263820705D5DA0703D0E26B42F0040269
:1016A000E263020705D5DA0703D0E26B42F00802D5
:1016B000E263E26B002A34D0800604D5880602D5A6
:1016C000204600F0C1FF20684069E16BC0F3801044
:1016D00001F008010143204624D000F0A7FF206854
:1016E000416949061AD5416921F040014161606BA9
:1016F000A0B11B494163606BFFF768F8002810D068
:10170000606B416BBDE87040084783060FD58B06C0
:101710000DD52046BDE8704000F096BF2046FFF78B
:1017200098FF70BDFFF795FF0020E06370BD0306D2
:1017300006D50B0604D52046BDE8704001F02CB854
:101740004006F3D54806F1D5D168204621F0400186
:10175000D160202184F8391000F0E0F870BD00005D
:101760001D26000870B5040004D094F83900002547
:1017700010B106E0012070BD84F83850204600F01A
:1017800023F8242084F839002068C16821F400512E
:10179000C160204600F0A4FF2068016921F4904157
:1017A00001612068416921F02A0141612068C16816
:1017B00041F40051C160E563202084F8390084F8C9
:1017C0003A00002070BD000070B586B0002400947F
:1017D0000194029403942B4E03682B4902200322A8
:1017E0002A4DB34221D18B6943F480438B618B69CD
:1017F00003F4804304938B6943F004038B6189698C
:10180000039201F0040104910102CDE90010694640
:101810002846FFF773F82815CDE9000469462846E5
:101820000294FFF76BF806B070BD194EB342FAD1BF
:10183000CB6943F40033CB61CB6903F400330493E9
:101840008B6943F004038B618969039201F0040101
:1018500004910421CDE9001069462846FFF74EF8AF
:101860000820CDE90004694628460294FFF746F8AF
:10187000002205212620FFF7B9F92620FFF7A8F955
:10188000D1E700000038014000100240000801408C
:101890000044004090F83A30202B22D1F9B1F2B147
:1018A00090F83830012B1CD081628285C2850021DE
:1018B000C163222280F83A2080F838100168CA6893
:1018C00042F48072CA6001684A6942F001024A61CA
:1018D0000068C16841F02001C1600020704701200C
:1018E00070470220704700000068094988420DD106
:1018F00008484178112901D900214170C9B2491C19
:101900004170012203490448FFF7C4BF704700003B
:101910000044004048000020C40300207047FEE758
:101920003EB5002411480094019402940E4984604D
:10193000016004730475012505614FF46021446062
:10194000C161FEF78DFD08B1FEF706FD0B20CDE964
:101950000005694602940548FEF700FD002801D005
:10196000FEF7FAFC3EBD000000240140C00000204C
:1019700010B596B01C2211496846FEF741FC0021C3
:10198000684601F09BF80E4C0C491C2260611C312A
:1019900007A8FEF735FC002107A801F08FF80749DA
:1019A000A0611C2238310EA8FEF72AFC00210EA8E7
:1019B00001F084F8E06116B010BD0000F83C0008AA
:1019C000280000202DE9F04786B00024404800940C
:1019D000019402940394816941F02001816181693D
:1019E00001F020010491816941F010018161816958
:1019F00001F010010491816941F004018161816964
:101A000001F004010491816941F00801816180695C
:101A1000DFF8C08000F008004FF4F9750490002250
:101A200029464046FFF76BF8DFF8ACA000223021D2
:101A30005046FFF764F8DFF8A49043F6024700220F
:101A400039464846FFF75BF8052002268DE851002D
:101A500069465046FEF752FF0820CDE9000469466A
:101A600050460294FEF74AFF009501250396CDE902
:101A7000015469464046FEF741FF3020CDE900059C
:101A8000CDE9024669465046FEF738FFCDE90054DD
:101A9000694648460294FEF731FF00970396CDE968
:101AA000015469464846FEF729FF4FF440408DE84F
:101AB000310069464846FEF721FF38118DE83100B4
:101AC00069465046FEF71AFF06B0BDE8F0870000F1
:101AD000001002400008014000100140000C0140CD
:101AE0001CB500240F4800940D490194016041F693
:101AF0001F41C0E9011442F20F71C1608021816170
:101B0000FFF73FFC08B1FEF727FC00946946054843
:101B10000194FFF715FC002801D0FEF71DFC1CBD49
:101B200000100040440300200C4810B50A49016031
:101B30004FF4E1314160002181600C22C160C0E9B5
:101B400004128161C161FFF70DFE002803D0BDE8DA
:101B50001040FEF701BC10BD003801408403002096
:101B60000C4810B50A4901604FF4E1314160002191
:101B700081600C22C160C0E904128161C161FFF77C
:101B8000F1FD002803D0BDE81040FEF7E5BB10BD15
:101B900000440040C4030020FEE7704786B0B84F01
:101BA000B84EDFF8E482B94C4FF4804B4FF0010A95
:101BB0004FF00009A078002878D101213046FEF7C7
:101BC00099FFA0B90A2000F06DFF01213046FEF711
:101BD00091FF18B10BE00A2000F064FF01213046AC
:101BE000FEF788FF0028F6D0E078401CE070E0782F
:101BF000032802D3484684F8039010F0FF0004D075
:101C0000012818D0022851D131E0012202213846A2
:101C1000FEF775FF002210213846FEF770FF002204
:101C200020213846FEF76BFF002202213046FEF7E6
:101C300066FF012214E0002202213846FEF75FFF12
:101C4000012210213846FEF75AFF00222021384693
:101C5000FEF755FF012202213046FEF750FF002219
:101C60004FF480613046FEF74AFF012219E000225E
:101C700002213846FEF743FF002210213846FEF7C6
:101C80003EFF012220213846FEF739FF01220221C2
:101C90003046FEF734FF012291023046FEF72FFF57
:101CA00000224FF400613046FEF729FF207800281B
:101CB00058D1012240213846FEF721FF0122802120
:101CC0003846FEF71CFF012210214046FEF717FFA1
:101CD000012220214046FEF712FF01221103304667
:101CE000FEF70DFF012251033046FEF708FF84F88E
:101CF00007A059463046FEF7FDFE45014FF400416E
:101D00003046FEF7F7FE05EB001540214046FEF792
:101D1000F1FE05EBC00580214046FEF7EBFE05EB2A
:101D200080054FF480714046FEF7E4FE05EB400568
:101D30004FF400714046FEF7DDFE2844C1B26170E9
:101D400006290AD2DFE801F009030F0F0F0F84F80C
:101D50000A900A2020731920A0732079421C227156
:101D6000642805D036E00520A07208202073F3E730
:101D700047A000F04BFDA37B227BA17A4AA000F094
:101D800045FD4FF400714046FEF7B4FE05464FF4A2
:101D900080714046FEF7AEFE019080214046FEF77E
:101DA000A9FE009040214046FEF7A4FE04904FF4A7
:101DB00000413046FEF79EFE039059463046FEF73E
:101DC00099FE0295DDE903230146454800F01EFD1A
:101DD00084F804902078A178084308D1414D286800
:101DE00028B104214046FEF785FE012805D00421D4
:101DF0004046FEF77FFEF8B13EE00A2000F052FEBA
:101E00002078A178084337D12868A8B30421404638
:101E1000FEF770FE01282FD133A000F0F7FC00235D
:101E20001A461946286801F0C5FB012824D184F818
:101E300002A084F800A01FE0A07801281CD184F83B
:101E4000009084F8029084F8059084F806902A495E
:101E500084F8039084F8019081F8009084F8089049
:101E600084F8099084F80A9084F80B9084F80C9018
:101E700084F80D9084F80E90642000F013FE99E62B
:101E800000080140000C0140001001402800002023
:101E90004770696F5F50696E5F5374617465203D70
:101EA0002025640D0A000000585F5374616E646160
:101EB00072645F54696D203D2025642C595F4C6F1E
:101EC000775F54696D203D2025642C5A5F4869670F
:101ED000685F54696D203D2025640D0A00000000F4
:101EE000643D000800000020B2E2CAD4BFAACABC08
:101EF0002E2E2E0D0A00000049000020DFF834B21B
:101F00008D4FDFF838A2DFF838828E4D8E4C0126D7
:101F10004FF000098D48FEF7F9FBFF218B48FEF7D3
:101F20005DFB38B98948FEF797FA81B2218288A013
:101F300000F06CFC29788AA000F068FC607AA8B9EF
:101F40008E480A21006801F0E5FB01280ED1DBF87C
:101F5000000058B100231A46194601F02BFB012856
:101F600004D185F8009086A000F050FC0A21386862
:101F700001F0D0FB012800D16672607A012814D1EB
:101F8000207AA17A884210D982A000F03FFCDAF8CA
:101F9000000050B100231A46194601F00BFB01283E
:101FA00003D184F8089084F809900A21D8F8000039
:101FB00001F0B0FB012800D1E672E07A012846D199
:101FC000207A217B884242D86078062855D2DFE803
:101FD00000F05403151A1530208A40F62821884253
:101FE0004BD371A000F012FC744800231A46194626
:101FF000006801F0DFFA012825D03EE0208AB0F524
:102000007A6FEED239E02878102836D166A000F039
:10201000FDFB6A4800231A461946006801F0CAFA17
:1020200001282AD166A000F0F1FB484685F800900F
:1020300021E001216748FEF75DFD01281DD12878C8
:102040001028CED019E05EA000F0E0FB12E0E07AAC
:10205000012812D1207A217B88420ED95EA000F09F
:10206000D5FB624800231A461946006801F0A2FA1F
:10207000012802D14846E07220725D480A210068BA
:1020800001F048FB012800D16673607B01283DD137
:10209000207AA17B884239D86078062832D2DFE8DE
:1020A00000F0310303071A1E208A1E281FD329E0DF
:1020B0002878112826D14FA000F0A8FB5248002311
:1020C0001A461946006801F075FA01281AD14846E7
:1020D00085F8009014E0208A7D2808D312E00121C1
:1020E0003C48FEF707FD68B9287811280AD141A0BD
:1020F00000F08CFB00231A461946434814E048467A
:1021000060732072642000F0CDFC03E7607B01283F
:10211000F8D1207AA17B8842F4D93CA000F076FB6C
:1021200000233F481A461946006801F043FA012887
:10213000E5D0E7E704000020080000200C000020A4
:10214000100000204900002028000020C0000020CE
:1021500041445F56616C7565203D2025640D0A0081
:102160002D2D2D2D2D4C6F775F4C6576616C5F4367
:102170006F756E743D3D25640D0A0000000000205F
:10218000C7D0BBBBCEAAB1EAD7BCD5D5B6C82E2E18
:102190002E0D0A00C7D0BBBBCEAAB5CDD5D5B6C8CB
:1021A0002E2E2E0D0A000000B5CDD5D5B6C8BFAA7B
:1021B000B5C6B3C9B9A62E2E2E0D0A0014000020F4
:1021C000C7D0BBBBCEAAB8DFD5D5B6C82E2E2E0D34
:1021D0000A00000000100140B5CDD5D5B6C8B2E266
:1021E000CAD4CAA7B0DC2E2E2E0D0A001C00002077
:1021F00018000020B8DFD5D5B6C8B9D8B5C6B3C960
:10220000B9A62E2E2E0D0A0024000020B8DFD5D549
:10221000B6C8B2E2CAD4CAA7B0DC2E2E2E0D0A0070
:1022200020000020824F834EDFF80C92834C844DB7
:10223000DFF810824FF0010B4FF0000A0A213868D6
:1022400001F068FA012823D07F480A21006801F0D4
:1022500061FA012846D07D480A21006801F05AFA47
:10226000012870D07A480A21006801F053FA012849
:1022700068D078480A21006801F04CFA012879D02A
:1022800075480A21006801F045FA012873D0CAE0B8
:1022900072A000F0BBFA012202212046FEF72FFCBB
:1022A000002210212046FEF72AFC00222021204691
:1022B000FEF725FC002202212846FEF720FC012221
:1022C00091022846FEF71BFC0122D1022846FEF7A8
:1022D00016FC30680028DAD000231A46194601F0AF
:1022E00069F9A0E061A000F091FA002202212046E5
:1022F000FEF705FC012210212046FEF700FC00221B
:1023000020212046FEF7FBFB012202212846FEF792
:10231000F6FB00224FF480612846FEF7F0FB012215
:10232000D1022846FEF7EBFBD9F8000000287AD04E
:1023300000231A46194601F03DF9012873D1584689
:1023400015E000E018E04DA000F060FA0122402105
:102350002046FEF7D4FB00224FF400512846FEF73A
:10236000CEFB002280212046FEF7C9FB504688F8AC
:10237000050058E036E046E045A000F047FA0022AC
:1023800040212046FEF7BBFB012220212046FEF71C
:10239000B6FB002202212046FEF7B1FB00221021ED
:1023A0002046FEF7ACFB012202212846FEF7A7FBE0
:1023B000012291022846FEF7A2FB00224FF40061A1
:1023C0002846FEF79CFB3648006860B300231A4697
:1023D000194601F0EFF8012825D188F806B088F8F1
:1023E00005A020E02FA000F011FA012210213048B2
:1023F000FEF785FB00224FF400512846FEF77FFBD5
:10240000002220210AE02BA000F000FA00224FF465
:1024100080512846FEF773FB002210212448FEF766
:102420006EFB88F806A0642000F03CFB06E7000085
:1024300004000020080000201000002000080140D7
:10244000000C0140280000200C0000201C0000208F
:10245000140000202000002024000020B1EAD7BC96
:10246000D5D5B6C8B4F2BFAA0D0A0000B5CDD5D5F2
:10247000B6C8B4F2BFAA0D0A00000000B5CDD5D58C
:10248000B6C8B2E2CAD4CAA7B0DC0D0A0000000088
:10249000B8DFD5D5B6C8B4F2BFAA0D0A0000000057
:1024A00018000020B2E2CAD4CAA7B0DC0D0A0000AE
:1024B00000100140B2E2CAD4CDEAB3C90D0A00004F
:1024C00010B5FEF727FB01F073FA012803D0BDE831
:1024D000104000F0F1BF10BD10B596B0282168463D
:1024E000FDF7A7FE14210AA8FDF7A3FE18210FA8E7
:1024F000FDF79FFE01210804CDE900104200029281
:1025000002240491CDE907404FF4E0100990684699
:10251000FEF770FD0F20CDE90A0400206102CDE92D
:102520000C010E9002210AA8FEF774FCA003119082
:102530000F940FA8FEF7F8FB16B010BD0D48016808
:1025400041F00101016041680B4A1140416001689E
:102550000A4A11400160016821F48021016041684C
:1025600021F4FE0141604FF41F0181600449C00362
:1025700008607047001002400000FFF8FFFFF6FE01
:1025800008ED00E00148FEF747BF000044030020CB
:10259000F0B502681C4B1D4D1D4E1E4F1E4C4FF0DA
:1025A000804C984209D0A04207D0604505D0A8428F
:1025B00003D0B04201D0B84204D122F0700E4A6874
:1025C00042EA0E02984209D0A04207D0604505D0E9
:1025D000A84203D0B04201D0B84203D122F44075E2
:1025E000CA682A434D6922F080022A4302608A6841
:1025F000C2620A688262984201D0A04201D1096990
:10260000016301214161F0BD002C01400004004044
:1026100000080040000C00400034014010B5406A42
:102620000021C185C184FFF714F810BD0168CA6894
:1026300022F49072CA6001684A6922F001024A617C
:10264000202180F83A10704710B590F83A102229EE
:1026500001D0022010BD8168B1F5805F11D0016901
:10266000002901681FD0496801F07F03816A4A1C74
:1026700082620B70C18D491E0904090CC18518D0F6
:102680002BE00269816A002A0268526805D0D2B242
:102690000A80816A491C8162ECE7C2F308020A8061
:1026A000816A891CF7E74A68816A4B1C83620A7059
:1026B000E0E70168CA6822F02002CA600168CA68BF
:1026C00022F48072CA6001684A6922F001024A61FC
:1026D000202180F83A10FFF707F9002010BD000014
:1026E0002DE9F041044600680169E26821F4405197
:1026F000114301612169A0680843616908432168A9
:10270000CA6841F20C639A430243CA602068416977
:10271000A26921F44071114341611E49206864257A
:102720003226884202D1FEF71BFC01E0FEF708FCCE
:1027300000EBC00101EB001160686FF0180780002A
:10274000B1FBF0F2B2FBF5F2B1FBF0F37A4303EB2D
:102750008202B1FBF0F306EB0212B2FBF5F2B3FB1F
:10276000F5F302F0F00202EB0312B1FBF0F3B1FB60
:10277000F0F0B0FBF5F0784303EB800006EB0010BF
:10278000B0FBF5F0216800F00F0010448860BDE850
:10279000F08100000038014090F83910212901D063
:1027A000022070478168B1F5805F016A0BD04A1C36
:1027B0000262026809785160C18C491E0904090C43
:1027C000C1840ED017E009880268C1F30801516086
:1027D00001690029016A02D0491C0162ECE7891CE9
:1027E000FBE70168CA6822F08002CA600068C1681D
:1027F00041F04001C1600020704700000148FEF731
:1028000029BF0000C4030020FEE700000FB4054B01
:1028100010B503A9044A029800F028F810BC5DF82E
:1028200014FB0000C12900084C0000200907090E14
:10283000002804DB00F1E02080F80014704700F06D
:102840000F0000F1E02080F8141D704702E008C876
:10285000121F08C1002AFAD170477047002001E01A
:1028600001C1121F002AFBD1704700002DE9FF4F64
:1028700089B09B460446002506E025280BD05A4621
:102880000B999047641C6D1C20780028F5D10DB081
:102890002846BDE8F08F0027B8460122474900E0EE
:1028A000074314F8013F203B02FA03F00842F7D136
:1028B00020782E2819D114F8010F47F004072A2890
:1028C0000ED06FF02F022078A0F1300109290CD82A
:1028D00008EB880102EB410100EB0108641CF2E700
:1028E0000A98641C50F8048B0A9020780028CED0F7
:1028F000642808D0692806D075281ED05A460B993E
:1029000090476D1C58E00A994FF00A0901C90A91D5
:10291000002802DA40422D2102E0390504D52B219E
:102920008DF82010012103E0F90704D02021F7E7FA
:102930008A4608AE0DE00021FAE70A994FF00A092D
:1029400001C90A91F7E74946FDF77EFC303106F8E8
:10295000011D0028F7D1ADEB060000F12009780732
:1029600001D44FF00108C84502DDA8EB090000E0E2
:1029700000208046002706E008A85A46C05D0B9953
:1029800090476D1C7F1C5745F6DB04E030205A460B
:102990000B9990476D1CB8F10001A8F10108F5DC16
:1029A00005E016F8010B5A460B9990476D1CB9F1DA
:1029B0000001A9F10109F4DC641C65E709280100A4
:1029C00004490A685206FCD5024AC1B2121D1160C0
:1029D0007047000000380140FEF7A4F8FFF77CFDC7
:1029E000FEF7F0FFFFF77CF8FFF79EF8FEF798FF81
:1029F000FFF7B6F8012224492448FEF74BFF24488C
:102A0000FEF7F8FC03220021012000F06BFD214CB1
:102A1000032200212060012000F064FD6060032299
:102A20000021012000F05EFDA060032200210120B2
:102A300000F058FDE06003220021012000F052FD6B
:102A4000206103220021012000F04CFD606103227F
:102A50000021012000F046FDA06103220021012099
:102A600000F040FDE06103220021012000F03AFD6A
:102A7000206203220021012000F034FD6062FEF795
:102A800077FF00F016F8FEE748000020C40300209E
:102A9000440300200000002001460020842900D0CB
:102AA000C81C704710B500B9012000F0A5FB00203C
:102AB00010BD10B500F040FC002010BD7FB50D46E4
:102AC00004464169B0F9080081B1A16971B1FFF70D
:102AD000E3FFD4E905128DE80700D4E900102B4686
:102AE000226900F03AFF039004B070BDFFF7D4FFF5
:102AF00003A9CDE90001208A2B4682B2D4E9001057
:102B000000F0FEFE012801D00020EDE70398EBE77E
:102B10002DE9F041184C0F46054666692068001DF6
:102B200000F0A6FA38B9206890F82C1001208840EF
:102B3000A1698143A161681C07D137B12168BDE853
:102B4000F0410E48091D00F0D7BA20683544B5425F
:102B50004560216805D2A068BDE8F041091D00F07C
:102B6000B3BA6068091D00F0AFFA206B854200D24D
:102B70002563BDE8F081000060000020E004002033
:102B80002DE9F041054600F0C3FA2E4C2069401CA7
:102B9000206120682C4F10B1E06940B32DE0256022
:102BA0002069012829D1002606EB860007EB80006A
:102BB00000F07CFA761C072EF6D323488C3000F008
:102BC00075FA2148A03000F071FA1F48B43000F0C7
:102BD0006DFA1D48C83000F069FA1B48DC3000F07F
:102BE00065FA19488C3060601430A06005E02068F8
:102BF000E96AC06A884200D82560E06A401CE06249
:102C0000E96A0120A26988401043A06101EB8100BC
:102C100007EB8000291D00F06FFA00F099FAE069D7
:102C200000280CD02068E96AC06A884207D20749A8
:102C30004FF080500860BFF34F8FBFF36F8FBDE838
:102C4000F0810000600000200404002004ED00E09A
:102C50002DE9F041856B174604460026026C82B1CF
:102C6000C7B1E068FDF7CCFAE168206C091AE160B1
:102C70002268914202D26168081AE060022F16D0E1
:102C800017E02068A8B9606800F004FF064600203D
:102C900060600EE0A068FDF7B3FA216CA0680844FC
:102CA000A0606168884204D32068A06001E005B19B
:102CB0006D1E6D1CA5633046BDE8F08110B504465D
:102CC00090F8510058B101280CD002280FD05020A4
:102CD00080F31188BFF34F8FBFF36F8FFEE7206B38
:102CE00000F04AFA2046BDE8104000F045BA10BD99
:102CF00010484FF42051420706D0C01D0D4920F066
:102D00000700411AC1F520510B4A00230144C2E9D2
:102D100000030839103A21F0070111604B600B6085
:102D20000B1AC0E9001393604FF000405360D0606D
:102D300070470000F4040020AC000020144E154C35
:102D4000A6F1C8074FF08058DFF84C9012E000BFA2
:102D500000F0DEF9F068C568281D00F089F92069E7
:102D6000401E2061E068401EE06000F0F1F9284656
:102D7000FFF7A4FFE0680028EAD138680128F9D9F4
:102D8000C9F80080BFF34F8FBFF36F8FF2E70000E9
:102D9000CC0400206000002004ED00E00346009811
:102DA00029B10260C0E90F31012100F0BFBB006012
:102DB000F8E72DE9F0479A46DDE9098481466FF08E
:102DC0000303206B03EB82021044089D20F00706EA
:102DD000700707D0502080F31188BFF34F8FBFF3E7
:102DE0006F8FFEE723180A5C83F834200A5C12B167
:102DF000401C1028F6D3002784F84370072D00D319
:102E00000625E562C4E91157201D00F05AF904F1C6
:102E1000180000F056F92461C5F107006462A06152
:102E2000E76484F8507052464946304600F00EF987
:102E30002060B8F1000F01D0C8F80040BDE8F0876D
:102E400030B5114900E011460A688242FBD34B6855
:102E50005C18844203D140681844486008464368BF
:102E60001C18944209D1084C103C2468A24209D095
:102E700052681A4442600A6812680260814200D0B7
:102E8000086030BD0460F9E7AC00002010B50446CE
:102E900000F03EF9A06B28B15FF0000400F058F993
:102EA000204610BD0124F9E706484168096829B1A8
:102EB0004168C968C9684968016370474FF0FF31CC
:102EC000FAE700006000002008484068401C4FF00E
:102ED000500080F3118804D0BFF34F8FBFF36F8F82
:102EE000FEE7BFF34F8FBFF36F8FFEE7B400002004
:102EF0002DE9F041044600F00BF994F9455004F136
:102F0000240609E0606A48B1304600F059FE08B175
:102F100000F0A0F96D1E6DB2002DF3DC4FF0FF360E
:102F200084F8456000F014F900F0F2F894F9445088
:102F300004F1100709E0206948B1384600F040FE6E
:102F400008B100F087F96D1E6DB2002DF3DC84F836
:102F50004460BDE8F04100F0FBB800002DE9F0410D
:102F60000546002700F01EFA314E306808B9FFF719
:102F7000BFFEF06805424BD1C5B3083568070ED0D7
:102F800005F00700C0F108000544680707D050208D
:102F900080F31188BFF34F8FBFF36F8FFEE72DB320
:102FA0007068854234D82248103001460C6801E030
:102FB00020460C466168A94202D221680029F7D157
:102FC00031688C4224D00768216801606068083746
:102FD000411B10290FD96019420708D0502080F3F7
:102FE0001188BFF34F8FBFF36F8FFEE710E0416092
:102FF0006560FFF725FF61687068401A7060B2680D
:10300000904200D2B060F06801430020C4E90001A2
:1030100000F010FE780707D0502080F31188BFF32E
:103020004F8FBFF36F8FFEE73846BDE8F081000099
:103030009C0000200449086818B10868826C521C82
:1030400082640868704700006000002010B5031F0C
:103050004FF080741C601B1F21F001011960191FC3
:10306000024B0B60143940380A6010BDC92E0008AD
:10307000D0E9013201699A60D0E901235A604A68B7
:10308000824201D182684A60002202610868401EC3
:103090000860086870470000034B036003F15400A8
:1030A0000860802010607047F000002000F10801E7
:1030B0004FF0FF32C0E90112C160016100210160DF
:1030C000704700210161704730B50B685A1C02D06F
:1030D00000F1080202E0026904E022465468256813
:1030E0009D42FAD953684B6099608A6051600861CB
:1030F0000168491C016030BD42684A6093688B607A
:1031000093685960916008610168491C01607047CB
:10311000502080F31188BFF34F8FBFF36F8F0A49A0
:103120004868401C486001280CD10848006810F02D
:10313000FF0F07D0502080F31188BFF34F8FBFF3EC
:103140006F8FFEE770470000B400002004ED00E040
:103150000849486828B1401E486001D180F31188B1
:103160007047502080F31188BFF34F8FBFF36F8FEC
:10317000FEE70000B400002070B5002827D0144DF1
:10318000A0F108046168E868014207D1502080F38B
:103190001188BFF34F8FBFF36F8FFEE722683AB1FC
:1031A000502080F31188BFF34F8FBFF36F8FFEE77E
:1031B0008143616000F0F6F86068696808446860FF
:1031C0002046FFF73DFEBDE8704000F033BD70BD06
:1031D0009C0000204FF0E020002101618161054941
:1031E0004FF47A720968B1FBF2F1491E416107217F
:1031F000016170475000002010B5020014D00F4844
:10320000806B38B1502080F31188BFF34F8FBFF32C
:103210006F8FFEE700F0C6F800211046FFF778FC3C
:1032200000F008FD002807D105494FF080500860E4
:10323000BFF34F8FBFF36F8F10BD00006000002001
:1032400004ED00E002498A6A026049694160704702
:1032500060000020014901204862704760000020A2
:1032600010B50C4650B1094909681831FFF72CFF19
:103270002046BDE810400121FFF74ABC502080F3F2
:103280001188BFF34F8FBFF36F8FFEE76000002000
:1032900070B504004BD0A26CA2B1606C884200D320
:1032A0000146E06A884242D0012A40D1204D2A6876
:1032B00094420FD1502080F31188BFF34F8FBFF39A
:1032C0006F8FFEE7502080F31188BFF34F8FBFF35D
:1032D0006F8FFEE7E162A269002A02DBC1F10701FC
:1032E000A161144E00EB8000616906EB8000814211
:1032F0001DD1201DFFF7BCFE012150B9E06A00EB93
:10330000800256F8222022B9AA6901FA00F082430D
:10331000AA61E06AAA6981401143A96100EB8000BB
:1033200006EB8000211DBDE87040FFF7E5BE70BDD3
:10333000600000200404002010B586B0002403942F
:1033400005AA04A903A80494FFF7A6FEDDE903017A
:103350000094CDE9011000230EA11048059A00F059
:10336000FCFA0F490028486311D0502080F31188DF
:10337000BFF34F8FBFF36F8F4FF0FF300863012013
:10338000C8614C6106B0BDE8104000F041B806B01D
:1033900010BD000049444C45000000003D2D0008D0
:1033A000600000200248816B491C81637047000067
:1033B000600000201448816B11B101214162704707
:1033C000002141628169B1FA81F1C1F11F0101EB74
:1033D00081020E4951F822306BB101EB820101F1FB
:1033E00008034A6852684A609A4201D152684A60AA
:1033F000D16801607047502080F31188BFF34F8F70
:10340000BFF36F8FFEE7000060000020040400207F
:103410001CB5264908780190FF20087008788DF8BF
:1034200000009DF800009DF8002000F0F0009042A0
:1034300007D0502080F31188BFF34F8FBFF36F8FF9
:10344000FEE79DF800001A4B00F0500018700720AE
:10345000986005E09DF8002052008DF80020401E85
:103460009DF800201206F5D49860032807D050205C
:1034700080F31188BFF34F8FBFF36F8FFEE74FF4D8
:1034800040709860019808700A48016841F4700122
:103490000160016841F070410160FFF79BFE002070
:1034A0005860FCF761FE00201CBD000000E400E055
:1034B000B400002020ED00E010B5502080F311880A
:1034C000BFF34F8FBFF36F8F00F080FA18B104493C
:1034D0004FF080500860002080F3118810BD00007C
:1034E00004ED00E0F8B517460E46050014D0DEB135
:1034F00005FB06F04830FFF731FD04000AD000203C
:1035000084F8460004F148023B46314628460094C0
:10351000FFF744FC2046F8BD502080F31188BFF32C
:103520004F8FBFF36F8FFEE70020E3E770B50D46C6
:10353000040025D0FFF7ECFDD4E90F20216802FB41
:10354000001161600021A1632168A1600A46D4E9ED
:103550000F01401E00FB0121E16021464FF0FF30CA
:1035600001F8440F487004F110008DB1FFF79EFD83
:1035700004F12400FFF79AFDFFF7EAFD012070BD7A
:10358000502080F31188BFF34F8FBFF36F8FFEE79A
:1035900021690029F0D000F013FB0028ECD0044989
:1035A0004FF080500860BFF34F8FBFF36F8FE3E79A
:1035B00004ED00E02DE9FF4782B01D468A464FF03A
:1035C0000008040003D0BAF1000F08D011E0502029
:1035D00080F31188BFF34F8FBFF36F8FFEE7206C2E
:1035E00038B1502080F31188BFF34F8FBFF36F8F36
:1035F000FEE7022D0AD1E06B012807D0502080F3AE
:103600001188BFF34F8FBFF36F8FFEE700F0D0F943
:103610003F4F4FF000094FF0805648B9049838B139
:10362000502080F31188BFF34F8FBFF36F8FFEE7F9
:10363000FFF76EFDA06BE16B884207D3022D05D02A
:103640000498D0B1B8F1000F1AD01EE02A465146B6
:103650002046FFF7FDFA616A19B104F1240000F079
:10366000AFFA20B13E60BFF34F8FBFF36F8FFFF70C
:103670006FFD012006B0BDE8F087FFF769FD22E08D
:103680006846FFF7DFFD4FF00108FFF761FDFFF728
:1036900089FEFFF73DFD94F94400401C01D184F8F8
:1036A000449094F94500401C01D184F84590FFF7FF
:1036B0004FFD04A9684600F0E9F830B12046FFF755
:1036C00017FC00F0B7FA0020D4E7FFF721FDA06B4C
:1036D000E16B884213D1FFF73BFD04F11000049920
:1036E000FFF7BEFD2046FFF703FC00F0A3FA002819
:1036F0009ED13E60BFF34F8FBFF36F8F98E7FFF708
:1037000027FD2046FFF7F4FB00F094FA90E7000055
:1037100004ED00E02DE9F343002683B004003546B4
:1037200009D0206C78B1502080F31188BFF34F8FFF
:10373000BFF36F8FFEE7502080F31188BFF34F8FE8
:10374000BFF36F8FFEE700F033F9DFF83C814FF0F5
:1037500000094FF0805748B9049838B1502080F3E1
:103760001188BFF34F8FBFF36F8FFEE7FFF7D0FCD9
:10377000A06BC8B1401EA063206810B9FFF75AFCC7
:103780006060206950B104F1100000F019FA28B10E
:10379000C8F80070BFF34F8FBFF36F8FFFF7D8FCEF
:1037A000012005B0BDE8F083049808B166B10FE0D0
:1037B0003DB1502080F31188BFF34F8FBFF36F8F5F
:1037C000FEE7FFF7C5FC5DE06846FFF73BFD01261D
:1037D000FFF7BEFCFFF7E6FDFFF79AFC94F9440003
:1037E000401C01D184F8449094F94500401C01D15B
:1037F00084F84590FFF7ACFC04A9684600F046F851
:103800000028204612D0FFF773FB00F013FA204681
:10381000FFF73CFB0028A9D09DB3FFF779FC606A55
:1038200050B3206B0068C0F1070126E0FFF72EFBC4
:10383000E0B1206838B9FFF76BFC606800F076F9FA
:103840000546FFF785FC04F124000499FFF708FD05
:103850002046FFF74DFB00F0EDF9002886D1C8F8AF
:103860000070BFF34F8FBFF36F8F7FE72046FFF7E6
:103870003FFB00F0DFF979E700216068FFF708FD02
:103880009FE7FFE700208CE704ED00E02DE9F04121
:103890000C46050011D0C4B1FFF73AFC174B5A692A
:1038A0006E682068911B471C17D02F689B6A9F4247
:1038B00019D0964217D8012410E0502080F31188C7
:1038C000BFF34F8FBFF36F8FFEE7502080F3118857
:1038D000BFF34F8FBFF36F8FFEE70024FFF738FC75
:1038E0002046BDE8F081884205D9401A206028466C
:1038F000FFF7A8FCF1E700202060DCE76000002073
:103900002DE9FF5F8346DDE90E87994616468A4614
:103910009000FFF723FB05001CD05420FFF71EFB8F
:10392000040014D00020256384F85100CDE9024042
:10393000CDE900874B46324651465846FFF739FAE3
:103940002046FFF71DF9012004B0BDE8F09F28468E
:10395000FFF712FC4FF0FF30F6E7F0B585B0DDE978
:103960000B640A9DA6B1DCB154270097266302269A
:1039700084F85160002604AFCDE90246CDE9005736
:10398000FFF717FA2046FFF7FBF8049805B0F0BDE3
:10399000502080F31188BFF34F8FBFF36F8FFEE786
:1039A000502080F31188BFF34F8FBFF36F8FFEE776
:1039B0000548C16919B1806B18B10020704701201A
:1039C0007047022070470000600000202DE9F041A0
:1039D0002E4C0027A06B40B1206A401C2062606A18
:1039E00000B101273846BDE8F0816669761C666142
:1039F00013D16068006838B1502080F31188BFF39C
:103A00004F8FBFF36F8FFEE76068A1686160A060B1
:103A1000A06A401CA062FFF747FA206BDFF87080B5
:103A2000864209D36068006880B16068C068C56874
:103A3000686886420DD220632068C06A00EB80016E
:103A400058F821000128CAD90127C8E74FF0FF30F4
:103A5000F1E7281DFFF70CFBA86A18B105F1180063
:103A6000FFF706FBE86A0121A26981401143A161C9
:103A700000EB800108EB8100291DFFF73DFBE86AA0
:103A80002168C96A8842CDD30127CBE760000020B6
:103A90000404002070B504004FF0000140D0214D17
:103AA0002868844207D0502080F31188BFF34F8FDD
:103AB000BFF36F8FFEE7A06C38B1401EA064636C4B
:103AC000E26A9A422CD040B12AE0502080F311885B
:103AD000BFF34F8FBFF36F8FFEE7201DFFF7C8FACC
:103AE000114A012150B9E06A00EB800352F82330FB
:103AF00023B9AB6901FA00F08343AB61606CE0620B
:103B0000C0F10700A061E06AAB6981401943A96177
:103B100000EB800002EB8000211DFFF7EDFA012190
:103B2000084670BD600000200404002070B5040049
:103B30004FF0000038D0204DE16A2A68D26A9142E5
:103B400033D2A069002804DB2868C06AC0F10700EE
:103B5000A0611A4E01EB8101606906EB8101884288
:103B60001ED1201DFFF784FA012150B9E06A00EB55
:103B7000800256F8222022B9AA6901FA00F0824395
:103B8000AA612868C06AE062AA6981401143A961FC
:103B900000EB800006EB8000211DFFF7ADFA02E08C
:103BA0002868C06AE062012070BD616C2A68D26A30
:103BB0009142F8D370BD0000600000200404002092
:103BC0002DE9F041C068C468ACB104F118000746A3
:103BD000FFF74EFA154DA86B0126A0B139461448DF
:103BE000FFF78AFAE06A2968C96A88421CD901206D
:103BF0006E62BDE8F081502080F31188BFF34F8FD3
:103C0000BFF36F8FFEE7201DFFF732FAE16AAA6962
:103C100006FA01F01043A86101EB81000449B439B0
:103C200001EB8000211DDBE70020E2E760000020BF
:103C3000B80400202DE9F0472C4D00242746A86B3E
:103C400038B1FFF765FAA86B401EA863A86B40B1B6
:103C500046E0502080F31188BFF34F8FBFF36F8F82
:103C6000FEE72969224E0120D1B3A6F1B4098046AE
:103C70003068E8B1F068C46804F11800FFF7F8F99B
:103C8000201DFFF7F5F9E06AAA6908FA00F111436F
:103C9000A96100EB800109EB8100211DFFF72CFADF
:103CA000E06A2968C96A8842E2D3C5F82480DFE760
:103CB0000CB1FFF7F9F82C6A44B14646FFF786FECF
:103CC00000B16E62641EF9D100202862686A38B1C2
:103CD0000849012738070860BFF34F8FBFF36F8F84
:103CE000FFF736FA3846BDE8F08700006000002094
:103CF000B804002004ED00E0B03D00089D1B000862
:103D000000000000000000000001000000000000B2
:103D100000000000BC3D0008FD1E0008FFFF000081
:103D20000000000000010000000000000000000092
:103D3000C83D000825220008FEFF0000000000002A
:103D40000001000000000000000000000000000072
:103D5000000000000102030406070809000000003B
:103D6000010203042D2D31626974203D2025642C4D
:103D70002D2D32626974203D2025642C2D2D336257
:103D80006974203D2025642C2D2D34626974203DFA
:103D90002025642C2D2D35626974203D2025642C4E
:103DA0002D2D36626974203D2025640D0A00000027
:103DB000554D5F5461736B3031000000554D5F54B9
:103DC00061736B3032000000554D5F5461736B308E
:103DD00033000000F43D000800000020C000000097
:103DE0004C280008B43E0008C0000020384C0000F9
:103DF0005C28000800000000000000000000000037
:103E000000000000000000000000000000000000B2
:103E100000000000000000000000000000000000A2
:103E20000000000000000000000000000000000092
:103E30000000000000000000000000000000000082
:103E4000000000000024F400010000001000000049
:103E50000000000000000000000000000000000062
:103E60000000000000000000000000000000000052
:103E70000000000000000000000000000000000042
:103E80000000000000000000000000000000000032
:103E90000000000000000000000000000000000022
:103EA000000000000000000000000000AAAAAAAA6A
:043EB000000000000E
:0400000508000131BD
:00000001FF
